{
  "contractName": "Signal",
  "abi": [
    {
      "constant": true,
      "inputs": [
        {
          "name": "",
          "type": "uint8"
        }
      ],
      "name": "optionSupport",
      "outputs": [
        {
          "name": "",
          "type": "uint256"
        }
      ],
      "payable": false,
      "type": "function"
    },
    {
      "constant": true,
      "inputs": [
        {
          "name": "",
          "type": "address"
        }
      ],
      "name": "signaledOption",
      "outputs": [
        {
          "name": "",
          "type": "uint8"
        }
      ],
      "payable": false,
      "type": "function"
    },
    {
      "constant": true,
      "inputs": [],
      "name": "get",
      "outputs": [
        {
          "name": "",
          "type": "address"
        },
        {
          "name": "",
          "type": "string"
        },
        {
          "name": "",
          "type": "uint8"
        },
        {
          "name": "",
          "type": "string"
        },
        {
          "name": "",
          "type": "uint64"
        },
        {
          "name": "",
          "type": "uint256"
        }
      ],
      "payable": false,
      "type": "function"
    },
    {
      "constant": false,
      "inputs": [
        {
          "name": "_option",
          "type": "uint8"
        }
      ],
      "name": "signal",
      "outputs": [],
      "payable": false,
      "type": "function"
    },
    {
      "inputs": [
        {
          "name": "_token",
          "type": "address"
        },
        {
          "name": "_title",
          "type": "string"
        },
        {
          "name": "_optionsCount",
          "type": "uint8"
        },
        {
          "name": "_optionsDescription",
          "type": "string"
        },
        {
          "name": "_closes",
          "type": "uint64"
        }
      ],
      "payable": false,
      "type": "constructor"
    },
    {
      "payable": false,
      "type": "fallback"
    },
    {
      "anonymous": false,
      "inputs": [
        {
          "indexed": true,
          "name": "from",
          "type": "address"
        },
        {
          "indexed": true,
          "name": "to",
          "type": "address"
        },
        {
          "indexed": false,
          "name": "amount",
          "type": "uint256"
        }
      ],
      "name": "Transfer",
      "type": "event"
    },
    {
      "anonymous": false,
      "inputs": [
        {
          "indexed": true,
          "name": "signaler",
          "type": "address"
        },
        {
          "indexed": false,
          "name": "option",
          "type": "uint8"
        },
        {
          "indexed": false,
          "name": "stake",
          "type": "uint256"
        }
      ],
      "name": "Signaled",
      "type": "event"
    }
  ],
  "bytecode": "0x6060604052341561000f57600080fd5b60405161097c38038061097c8339810160405280805191906020018051820191906020018051919060200180518201919060200180519150505b60008054600160a060020a031916600160a060020a03871617905560018480516100779291602001906100cb565b506002805460ff191660ff8516179055600382805161009a9291602001906100cb565b506004805467ffffffffffffffff191667ffffffffffffffff831617905543600019016005555b505050505061016b565b828054600181600116156101000203166002900490600052602060002090601f016020900481019282601f1061010c57805160ff1916838001178555610139565b82800160010185558215610139579182015b8281111561013957825182559160200191906001019061011e565b5b5061014692915061014a565b5090565b61016891905b808211156101465760008155600101610150565b5090565b90565b6108028061017a6000396000f3006060604052361561005c5763ffffffff60e060020a60003504166306fdde0381146100bb5780630e536f8e1461014657806313e2a7cb14610171578063313ce567146101a65780636d4ce63c146101cb578063efc69d41146102f4575b341561006757600080fd5b5b6100b86000368181811061007857fe5b905090013560f860020a900460f860020a027effffffffffffffffffffffffffffffffffffffffffffffffffffffffffffff191660f860020a900461030f565b5b005b34156100c657600080fd5b6100ce6104f5565b60405160208082528190810183818151815260200191508051906020019080838360005b8381101561010b5780820151818401525b6020016100f2565b50505050905090810190601f1680156101385780820380516001836020036101000a031916815260200191505b509250505060405180910390f35b341561015157600080fd5b61015f60ff6004351661059e565b60405190815260200160405180910390f35b341561017c57600080fd5b610190600160a060020a03600435166105b0565b60405160ff909116815260200160405180910390f35b34156101b157600080fd5b61015f6105c5565b60405190815260200160405180910390f35b34156101d657600080fd5b6101de610630565b604051600160a060020a038716815260ff8516604082015267ffffffffffffffff8316608082015260a0810182905260c060208201818152906060830190830188818151815260200191508051906020019080838360005b8381101561024f5780820151818401525b602001610236565b50505050905090810190601f16801561027c5780820380516001836020036101000a031916815260200191505b50838103825286818151815260200191508051906020019080838360005b838110156102b35780820151818401525b60200161029a565b50505050905090810190601f1680156102e05780820380516001836020036101000a031916815260200191505b509850505050505050505060405180910390f35b34156102ff57600080fd5b6100b860ff6004351661030f565b005b60008060008360ff1611801561032e575060025460ff90811690841611155b151561033957600080fd5b60008054600554339450600160a060020a0390911691634ee2cd7e9185916040516020015260405160e060020a63ffffffff8516028152600160a060020a0390921660048301526024820152604401602060405180830381600087803b15156103a157600080fd5b6102c65a03f115156103b257600080fd5b5050506040518051600160a060020a03841660009081526007602052604081205491935060ff9091161115905061041357600160a060020a03821660009081526007602090815260408083205460ff16835260069091529020805482900390555b60ff83166000818152600660209081526040808320805486019055600160a060020a038616808452600790925291829020805460ff19169093179092557f6edf73428d8d3b60f418a860b14e868f655eeae2be5baca6e878b11650c0d51090859084905160ff909216825260208201526040908101905180910390a28260ff1673010000000000000000000000000000000000000002600160a060020a031682600160a060020a03167fddf252ad1be2c89b69c2b068fc378daa952ba7f163c4a11628f55a4df523b3ef8360405190815260200160405180910390a35b505050565b6104fd6107c4565b60018054600181600116156101000203166002900480601f0160208091040260200160405190810160405280929190818152602001828054600181600116156101000203166002900480156105935780601f1061056857610100808354040283529160200191610593565b820191906000526020600020905b81548152906001019060200180831161057657829003601f168201915b505050505090505b90565b60066020526000908152604090205481565b60076020526000908152604090205460ff1681565b60008054600160a060020a031663313ce56782604051602001526040518163ffffffff1660e060020a028152600401602060405180830381600087803b151561060d57600080fd5b6102c65a03f1151561061e57600080fd5b505050604051805160ff169150505b90565b600061063a6107c4565b60006106446107c4565b6000805460028054600454600554600180548796600160a060020a031695919460ff169360039367ffffffffffffffff9091169290918691600019828416156101000201909116046020601f8201819004810201604051908101604052809291908181526020018280546001816001161561010002031660029004801561070c5780601f106106e15761010080835404028352916020019161070c565b820191906000526020600020905b8154815290600101906020018083116106ef57829003601f168201915b50505050509450828054600181600116156101000203166002900480601f0160208091040260200160405190810160405280929190818152602001828054600181600116156101000203166002900480156107a85780601f1061077d576101008083540402835291602001916107a8565b820191906000526020600020905b81548152906001019060200180831161078b57829003601f168201915b505050505092509550955095509550955095505b909192939495565b602060405190810160405260008152905600a165627a7a72305820f04d519902483b54fee7e7002bdcc84b9590e8a057ad59b8f98e932655cac7cb0029",
  "source": "pragma solidity 0.4.15;\n\nimport \"./MiniMeToken.sol\";\n\n/*\ncontract MiniMeToken {\n    uint8 public decimals;\n    function balanceOfAt(address _owner, uint _blockNumber) constant\n        returns (uint);\n}\n*/\ncontract Signal {\n    MiniMeToken token;\n    string title;\n    uint8 optionsCount;\n    string optionsDescription;\n    uint64 closes;\n    uint256 snapshotBlock;\n\n    mapping (uint8 => uint256) public optionSupport;\n    mapping (address => uint8) public signaledOption;\n\n    function Signal(MiniMeToken _token, string _title, uint8 _optionsCount, string _optionsDescription, uint64 _closes) {\n        token = _token;\n        title = _title;\n        optionsCount = _optionsCount;\n        optionsDescription = _optionsDescription;\n        closes = _closes;\n        snapshotBlock = block.number - 1;\n    }\n\n    function () public {\n        signal(uint8(msg.data[0]));\n    }\n\n    function signal(uint8 _option) {\n        require(_option > 0 && _option <= optionsCount);\n\n        address signaler = msg.sender;\n        uint256 stake = token.balanceOfAt(signaler, snapshotBlock);\n\n        if (signaledOption[signaler] > 0) optionSupport[signaledOption[signaler]] -= stake;\n        optionSupport[_option] += stake;\n        signaledOption[signaler] = _option;\n\n        Signaled(signaler, _option, stake);\n        Transfer(signaler, _option * 256**19, stake); // trick etherscan to show event\n    }\n\n    function get() constant returns (address, string, uint8, string, uint64, uint256) {\n        return (token, title, optionsCount, optionsDescription, closes, snapshotBlock);\n    }\n\n    function name() returns (string) {\n        return title;\n    }\n\n    function decimals() returns (uint256) {\n        return token.decimals();\n    }\n\n    event Transfer(address indexed from, address indexed to, uint256 amount);\n    event Signaled(address indexed signaler, uint8 option, uint256 stake);\n}\n",
  "sourcePath": "/Users/jorge/provident/governance-signaling/contracts/Signal.sol",
  "schemaVersion": "1.0.0",
  "updatedAt": "2017-09-21T15:15:58.420Z",
  "contract_name": "Signal",
  "unlinked_binary": "0x6060604052341561000f57600080fd5b6040516107743803806107748339810160405280805191906020018051820191906020018051919060200180518201919060200180519150505b60008054600160a060020a031916600160a060020a03871617905560018480516100779291602001906100cb565b506002805460ff191660ff8516179055600382805161009a9291602001906100cb565b506004805467ffffffffffffffff191667ffffffffffffffff831617905543600019016005555b505050505061016b565b828054600181600116156101000203166002900490600052602060002090601f016020900481019282601f1061010c57805160ff1916838001178555610139565b82800160010185558215610139579182015b8281111561013957825182559160200191906001019061011e565b5b5061014692915061014a565b5090565b61016891905b808211156101465760008155600101610150565b5090565b90565b6105fa8061017a6000396000f3006060604052361561005f5763ffffffff7c01000000000000000000000000000000000000000000000000000000006000350416630e536f8e81146100be57806313e2a7cb146100e95780636d4ce63c1461011e578063efc69d4114610247575b341561006a57600080fd5b5b6100bb6000368181811061007b57fe5b905090013560f860020a900460f860020a027effffffffffffffffffffffffffffffffffffffffffffffffffffffffffffff191660f860020a9004610262565b5b005b34156100c957600080fd5b6100d760ff60043516610401565b60405190815260200160405180910390f35b34156100f457600080fd5b610108600160a060020a0360043516610413565b60405160ff909116815260200160405180910390f35b341561012957600080fd5b610131610428565b604051600160a060020a038716815260ff8516604082015267ffffffffffffffff8316608082015260a0810182905260c060208201818152906060830190830188818151815260200191508051906020019080838360005b838110156101a25780820151818401525b602001610189565b50505050905090810190601f1680156101cf5780820380516001836020036101000a031916815260200191505b50838103825286818151815260200191508051906020019080838360005b838110156102065780820151818401525b6020016101ed565b50505050905090810190601f1680156102335780820380516001836020036101000a031916815260200191505b509850505050505050505060405180910390f35b341561025257600080fd5b6100bb60ff60043516610262565b005b60008060008360ff16118015610281575060025460ff90811690841611155b151561028c57600080fd5b60008054600554339450600160a060020a0390911691634ee2cd7e918591604051602001526040517c010000000000000000000000000000000000000000000000000000000063ffffffff8516028152600160a060020a0390921660048301526024820152604401602060405180830381600087803b151561030d57600080fd5b6102c65a03f1151561031e57600080fd5b5050506040518051600160a060020a03841660009081526007602052604081205491935060ff9091161115905061037f57600160a060020a03821660009081526007602090815260408083205460ff16835260069091529020805482900390555b60ff83166000818152600660209081526040808320805486019055600160a060020a038616808452600790925291829020805460ff19169093179092557f6edf73428d8d3b60f418a860b14e868f655eeae2be5baca6e878b11650c0d51090859084905160ff909216825260208201526040908101905180910390a25b505050565b60066020526000908152604090205481565b60076020526000908152604090205460ff1681565b60006104326105bc565b600061043c6105bc565b6000805460028054600454600554600180548796600160a060020a031695919460ff169360039367ffffffffffffffff9091169290918691600019828416156101000201909116046020601f820181900481020160405190810160405280929190818152602001828054600181600116156101000203166002900480156105045780601f106104d957610100808354040283529160200191610504565b820191906000526020600020905b8154815290600101906020018083116104e757829003601f168201915b50505050509450828054600181600116156101000203166002900480601f0160208091040260200160405190810160405280929190818152602001828054600181600116156101000203166002900480156105a05780601f10610575576101008083540402835291602001916105a0565b820191906000526020600020905b81548152906001019060200180831161058357829003601f168201915b505050505092509550955095509550955095505b909192939495565b602060405190810160405260008152905600a165627a7a72305820b654454cdc4b688691561684d5f1505983076d705f3c2556cc955fd888dd71420029",
  "schema_version": "0.0.5",
  "updated_at": 1507125804261
}